{
  "contractName": "CoinFlip",
  "abi": [
    {
      "inputs": [],
      "payable": true,
      "stateMutability": "payable",
      "type": "constructor"
    },
    {
      "anonymous": false,
      "inputs": [
        {
          "indexed": false,
          "internalType": "address",
          "name": "player",
          "type": "address"
        },
        {
          "indexed": false,
          "internalType": "bool",
          "name": "betResult",
          "type": "bool"
        },
        {
          "indexed": false,
          "internalType": "uint256",
          "name": "valueBack",
          "type": "uint256"
        }
      ],
      "name": "result",
      "type": "event"
    },
    {
      "constant": true,
      "inputs": [],
      "name": "balance",
      "outputs": [
        {
          "internalType": "uint256",
          "name": "",
          "type": "uint256"
        }
      ],
      "payable": false,
      "stateMutability": "view",
      "type": "function"
    },
    {
      "constant": true,
      "inputs": [],
      "name": "owner",
      "outputs": [
        {
          "internalType": "address",
          "name": "",
          "type": "address"
        }
      ],
      "payable": false,
      "stateMutability": "view",
      "type": "function"
    },
    {
      "constant": false,
      "inputs": [],
      "name": "addBalance",
      "outputs": [],
      "payable": true,
      "stateMutability": "payable",
      "type": "function"
    },
    {
      "constant": true,
      "inputs": [],
      "name": "random",
      "outputs": [
        {
          "internalType": "uint256",
          "name": "",
          "type": "uint256"
        }
      ],
      "payable": false,
      "stateMutability": "view",
      "type": "function"
    },
    {
      "constant": false,
      "inputs": [
        {
          "internalType": "uint256",
          "name": "coinGuess",
          "type": "uint256"
        }
      ],
      "name": "flipCoin",
      "outputs": [
        {
          "internalType": "bool",
          "name": "betResult",
          "type": "bool"
        }
      ],
      "payable": true,
      "stateMutability": "payable",
      "type": "function"
    },
    {
      "constant": true,
      "inputs": [],
      "name": "getBalance",
      "outputs": [
        {
          "internalType": "uint256",
          "name": "",
          "type": "uint256"
        }
      ],
      "payable": false,
      "stateMutability": "view",
      "type": "function"
    },
    {
      "constant": false,
      "inputs": [],
      "name": "withdrawAll",
      "outputs": [
        {
          "internalType": "uint256",
          "name": "",
          "type": "uint256"
        }
      ],
      "payable": false,
      "stateMutability": "nonpayable",
      "type": "function"
    }
  ],
  "bytecode": "0x608060405233600160006101000a81548173ffffffffffffffffffffffffffffffffffffffff021916908373ffffffffffffffffffffffffffffffffffffffff160217905550610752806100546000396000f3fe6080604052600436106100705760003560e01c8063853828b61161004e578063853828b6146101115780638da5cb5b1461013c578063b163cc3814610193578063b69ef8a81461019d57610070565b806312065fe0146100755780635ec01e4d146100a05780635f5be1f4146100cb575b600080fd5b34801561008157600080fd5b5061008a6101c8565b6040518082815260200191505060405180910390f35b3480156100ac57600080fd5b506100b56101e7565b6040518082815260200191505060405180910390f35b6100f7600480360360208110156100e157600080fd5b81019080803590602001909291905050506101f9565b604051808215151515815260200191505060405180910390f35b34801561011d57600080fd5b506101266105a2565b6040518082815260200191505060405180910390f35b34801561014857600080fd5b5061015161069a565b604051808273ffffffffffffffffffffffffffffffffffffffff1673ffffffffffffffffffffffffffffffffffffffff16815260200191505060405180910390f35b61019b6106c0565b005b3480156101a957600080fd5b506101b26106cf565b6040518082815260200191505060405180910390f35b60003073ffffffffffffffffffffffffffffffffffffffff1631905090565b6000600242816101f357fe5b06905090565b6000662386f26fc1000080341015610279576040517f08c379a000000000000000000000000000000000000000000000000000000000815260040180806020018281038252601c8152602001807f546865206d696e696d756d2062657420697320302e312045746865720000000081525060200191505060405180910390fd5b343073ffffffffffffffffffffffffffffffffffffffff163110156102e9576040517f08c379a00000000000000000000000000000000000000000000000000000000081526004018080602001828103825260278152602001806106f76027913960400191505060405180910390fd5b6102f16106d5565b6000339050600085836000018181525050348360200181815250506103146101e7565b83604001818152505082600260008473ffffffffffffffffffffffffffffffffffffffff1673ffffffffffffffffffffffffffffffffffffffff168152602001908152602001600020600082015181600001556020820151816001015560408201518160020155905050600260008373ffffffffffffffffffffffffffffffffffffffff1673ffffffffffffffffffffffffffffffffffffffff16815260200190815260200160002060000154600260008473ffffffffffffffffffffffffffffffffffffffff1673ffffffffffffffffffffffffffffffffffffffff16815260200190815260200160002060020154141561051c5760028060008473ffffffffffffffffffffffffffffffffffffffff1673ffffffffffffffffffffffffffffffffffffffff168152602001908152602001600020600101540290508173ffffffffffffffffffffffffffffffffffffffff166108fc829081150290604051600060405180830381858888f19350505050158015610497573d6000803e3d6000fd5b507fb748d1d8d10626619e45206b17d96b4d3e77b03ac853dbbfec318a44547fcf3d33600183604051808473ffffffffffffffffffffffffffffffffffffffff1673ffffffffffffffffffffffffffffffffffffffff16815260200183151515158152602001828152602001935050505060405180910390a16001945050505061059c565b7fb748d1d8d10626619e45206b17d96b4d3e77b03ac853dbbfec318a44547fcf3d33600080604051808473ffffffffffffffffffffffffffffffffffffffff1673ffffffffffffffffffffffffffffffffffffffff16815260200183151515158152602001828152602001935050505060405180910390a1600094505050505b50919050565b6000600160009054906101000a900473ffffffffffffffffffffffffffffffffffffffff1673ffffffffffffffffffffffffffffffffffffffff163373ffffffffffffffffffffffffffffffffffffffff16146105fe57600080fd5b3373ffffffffffffffffffffffffffffffffffffffff166108fc3073ffffffffffffffffffffffffffffffffffffffff16319081150290604051600060405180830381858888f1935050505015801561065b573d6000803e3d6000fd5b5060003073ffffffffffffffffffffffffffffffffffffffff16311461067d57fe5b3073ffffffffffffffffffffffffffffffffffffffff1631905090565b600160009054906101000a900473ffffffffffffffffffffffffffffffffffffffff1681565b600034116106cd57600080fd5b565b60005481565b6040518060600160405280600081526020016000815260200160008152509056fe54686520636f6e747261637420646f6573206e6f74206861766520656e6f7567682066756e6473a265627a7a723158200367f53650f6ac8e50ddafd2ecd3c4ca8ffe2ca35ff81d611bb3c2aeeb24f17c64736f6c634300050c0032",
  "source": "pragma solidity 0.5.12;\n\ncontract CoinFlip{\n\n    uint public balance;\n    address public owner;\n\n    constructor() public payable {\n        owner = msg.sender;\n    }\n\n    modifier onlyOwner(){\n        require(msg.sender == owner);\n        _;\n    }\n\n    modifier costs(uint cost){\n        require(msg.value >= cost, \"The minimum bet is 0.1 Ether\");\n        _;\n    }\n\n    struct Player {\n      uint coinSelection;\n      uint betInput;\n      uint result;\n    }\n\n    mapping (address=>Player) bets;\n\n    event result(address player, bool betResult, uint valueBack);\n\n    function addBalance() public payable {\n      require(msg.value>0);\n    }\n\n    function random() public view returns(uint){\n      return now % 2;\n    }\n\n\n    function flipCoin(uint coinGuess) public payable costs(0.01 ether) returns(bool betResult){\n        require(address(this).balance >= msg.value, \"The contract does not have enough funds\");\n\n    Player memory newPlayer;\n    address payable player = msg.sender;\n    uint toTransfer;\n    newPlayer.coinSelection = coinGuess;\n    newPlayer.betInput = msg.value;\n    newPlayer.result = random();\n    bets[player] = newPlayer;\n\n    if(bets[player].result == bets[player].coinSelection){\n      toTransfer = bets[player].betInput*2;\n      player.transfer(toTransfer);\n      emit result (msg.sender, true, toTransfer);\n      return true;\n    }\n\n    else {\n      emit result(msg.sender, false, 0);\n      return false;\n    }\n    }\n\n    function getBalance() public view returns(uint){\n        return address(this).balance;\n    }\n\n        function withdrawAll() public onlyOwner returns(uint) {\n            msg.sender.transfer(address(this).balance);\n            assert(address(this).balance == 0);\n            return address(this).balance;\n    }\n\n}\n",
  "sourcePath": "/Users/margaritagyorgiev/Desktop/IOT/Ethereum course advanced/CoinFlip_dApp/contracts/CoinFlip.sol",
  "compiler": {
    "name": "solc",
    "version": "0.5.12+commit.7709ece9.Emscripten.clang"
  },
  "schemaVersion": "3.0.16",
  "updatedAt": "2021-03-02T01:22:47.722Z",
  "devdoc": {
    "methods": {}
  },
  "userdoc": {
    "methods": {}
  }
}