{
  "contractName": "CoinFlip",
  "abi": [
    {
      "inputs": [],
      "payable": true,
      "stateMutability": "payable",
      "type": "constructor"
    },
    {
      "anonymous": false,
      "inputs": [
        {
          "indexed": false,
          "internalType": "address",
          "name": "player",
          "type": "address"
        },
        {
          "indexed": false,
          "internalType": "uint256",
          "name": "bet",
          "type": "uint256"
        },
        {
          "indexed": false,
          "internalType": "bool",
          "name": "",
          "type": "bool"
        }
      ],
      "name": "betPlaced",
      "type": "event"
    },
    {
      "constant": true,
      "inputs": [],
      "name": "balance",
      "outputs": [
        {
          "internalType": "uint256",
          "name": "",
          "type": "uint256"
        }
      ],
      "payable": false,
      "stateMutability": "view",
      "type": "function"
    },
    {
      "constant": true,
      "inputs": [],
      "name": "owner",
      "outputs": [
        {
          "internalType": "address",
          "name": "",
          "type": "address"
        }
      ],
      "payable": false,
      "stateMutability": "view",
      "type": "function"
    },
    {
      "constant": false,
      "inputs": [],
      "name": "addBalance",
      "outputs": [],
      "payable": true,
      "stateMutability": "payable",
      "type": "function"
    },
    {
      "constant": false,
      "inputs": [],
      "name": "flipCoin",
      "outputs": [
        {
          "internalType": "bool",
          "name": "",
          "type": "bool"
        }
      ],
      "payable": true,
      "stateMutability": "payable",
      "type": "function"
    },
    {
      "constant": true,
      "inputs": [],
      "name": "getBalance",
      "outputs": [
        {
          "internalType": "uint256",
          "name": "",
          "type": "uint256"
        }
      ],
      "payable": false,
      "stateMutability": "view",
      "type": "function"
    },
    {
      "constant": false,
      "inputs": [],
      "name": "withdrawAll",
      "outputs": [
        {
          "internalType": "uint256",
          "name": "",
          "type": "uint256"
        }
      ],
      "payable": false,
      "stateMutability": "nonpayable",
      "type": "function"
    }
  ],
  "bytecode": "0x608060405233600160006101000a81548173ffffffffffffffffffffffffffffffffffffffff021916908373ffffffffffffffffffffffffffffffffffffffff160217905550610519806100546000396000f3fe6080604052600436106100555760003560e01c806312065fe01461005a578063799ae22314610085578063853828b6146100a75780638da5cb5b146100d2578063b163cc3814610129578063b69ef8a814610133575b600080fd5b34801561006657600080fd5b5061006f61015e565b6040518082815260200191505060405180910390f35b61008d61017d565b604051808215151515815260200191505060405180910390f35b3480156100b357600080fd5b506100bc61038a565b6040518082815260200191505060405180910390f35b3480156100de57600080fd5b506100e7610482565b604051808273ffffffffffffffffffffffffffffffffffffffff1673ffffffffffffffffffffffffffffffffffffffff16815260200191505060405180910390f35b6101316104a8565b005b34801561013f57600080fd5b506101486104b7565b6040518082815260200191505060405180910390f35b60003073ffffffffffffffffffffffffffffffffffffffff1631905090565b6000662386f26fc10000803410156101fd576040517f08c379a000000000000000000000000000000000000000000000000000000000815260040180806020018281038252601c8152602001807f546865206d696e696d756d2062657420697320302e312045746865720000000081525060200191505060405180910390fd5b343073ffffffffffffffffffffffffffffffffffffffff1631101561026d576040517f08c379a00000000000000000000000000000000000000000000000000000000081526004018080602001828103825260278152602001806104be6027913960400191505060405180910390fd5b6000806002428161027a57fe5b061415610299573460008082825401925050819055506000905061030b565b6001600242816102a557fe5b06141561030a573460008082825403925050819055503373ffffffffffffffffffffffffffffffffffffffff166108fc600234029081150290604051600060405180830381858888f19350505050158015610304573d6000803e3d6000fd5b50600190505b5b7f73bd43530b3f4bd380a12ac5b08dcbb30e92f8df9a9e3264c6a26222309ff953333483604051808473ffffffffffffffffffffffffffffffffffffffff1673ffffffffffffffffffffffffffffffffffffffff16815260200183815260200182151515158152602001935050505060405180910390a1809250505090565b6000600160009054906101000a900473ffffffffffffffffffffffffffffffffffffffff1673ffffffffffffffffffffffffffffffffffffffff163373ffffffffffffffffffffffffffffffffffffffff16146103e657600080fd5b3373ffffffffffffffffffffffffffffffffffffffff166108fc3073ffffffffffffffffffffffffffffffffffffffff16319081150290604051600060405180830381858888f19350505050158015610443573d6000803e3d6000fd5b5060003073ffffffffffffffffffffffffffffffffffffffff16311461046557fe5b3073ffffffffffffffffffffffffffffffffffffffff1631905090565b600160009054906101000a900473ffffffffffffffffffffffffffffffffffffffff1681565b600034116104b557600080fd5b565b6000548156fe54686520636f6e747261637420646f6573206e6f74206861766520656e6f7567682066756e6473a265627a7a723158208df6f792e920772c15ef23bf727de2e216d92e370f1bbe131a7e328a3d66621d64736f6c634300050c0032",
  "source": "pragma solidity 0.5.12;\n\ncontract CoinFlip{\n\n    uint public balance;\n    address public owner;\n\n    constructor() public payable {\n        owner = msg.sender;\n    }\n\n    modifier onlyOwner(){\n        require(msg.sender == owner);\n        _;\n    }\n\n    modifier costs(uint cost){\n        require(msg.value >= cost, \"The minimum bet is 0.1 Ether\");\n        _;\n    }\n\n    event betPlaced(address player, uint bet, bool);\n\n    function addBalance() public payable {\n      require(msg.value>0);\n    }\n\n    function flipCoin() public payable costs(0.01 ether) returns (bool){\n        require(address(this).balance >= msg.value, \"The contract does not have enough funds\");\n\n        bool success;\n        if(now % 2 == 0){\n            balance += msg.value;\n            success = false;\n        }\n\n        else if (now % 2 == 1){\n            balance -= msg.value;\n            msg.sender.transfer(msg.value*2);\n            success = true;\n        }\n\n        emit betPlaced(msg.sender, msg.value, success);\n                return success;\n    }\n\n    function getBalance() public view returns(uint){\n        return address(this).balance;\n    }\n\n        function withdrawAll() public onlyOwner returns(uint) {\n            msg.sender.transfer(address(this).balance);\n            assert(address(this).balance == 0);\n            return address(this).balance;\n    }\n\n}\n",
  "sourcePath": "/Users/margaritagyorgiev/Desktop/IOT/Ethereum course advanced/CoinFlip_dApp/contracts/CoinFlip.sol",
  "compiler": {
    "name": "solc",
    "version": "0.5.12+commit.7709ece9.Emscripten.clang"
  },
  "schemaVersion": "3.0.16",
  "updatedAt": "2021-02-26T21:57:49.500Z",
  "devdoc": {
    "methods": {}
  },
  "userdoc": {
    "methods": {}
  }
}