{
  "contractName": "CoinFlip",
  "abi": [
    {
      "inputs": [],
      "payable": false,
      "stateMutability": "nonpayable",
      "type": "constructor"
    },
    {
      "anonymous": false,
      "inputs": [
        {
          "indexed": false,
          "internalType": "string",
          "name": "description",
          "type": "string"
        }
      ],
      "name": "LogNewProvableQuery",
      "type": "event"
    },
    {
      "anonymous": false,
      "inputs": [
        {
          "indexed": false,
          "internalType": "uint256",
          "name": "randomNumber",
          "type": "uint256"
        }
      ],
      "name": "generatedRandomNumber",
      "type": "event"
    },
    {
      "anonymous": false,
      "inputs": [
        {
          "indexed": true,
          "internalType": "address",
          "name": "player",
          "type": "address"
        },
        {
          "indexed": false,
          "internalType": "bool",
          "name": "betResult",
          "type": "bool"
        },
        {
          "indexed": false,
          "internalType": "uint256",
          "name": "valueBack",
          "type": "uint256"
        }
      ],
      "name": "result",
      "type": "event"
    },
    {
      "constant": true,
      "inputs": [],
      "name": "owner",
      "outputs": [
        {
          "internalType": "address",
          "name": "",
          "type": "address"
        }
      ],
      "payable": false,
      "stateMutability": "view",
      "type": "function"
    },
    {
      "constant": false,
      "inputs": [
        {
          "internalType": "uint256",
          "name": "coinGuess",
          "type": "uint256"
        }
      ],
      "name": "coinFlip",
      "outputs": [],
      "payable": true,
      "stateMutability": "payable",
      "type": "function"
    },
    {
      "constant": false,
      "inputs": [],
      "name": "getRandomNumber",
      "outputs": [
        {
          "internalType": "bytes32",
          "name": "",
          "type": "bytes32"
        }
      ],
      "payable": true,
      "stateMutability": "payable",
      "type": "function"
    },
    {
      "constant": false,
      "inputs": [
        {
          "internalType": "bytes32",
          "name": "_queryID",
          "type": "bytes32"
        },
        {
          "internalType": "string",
          "name": "_result",
          "type": "string"
        }
      ],
      "name": "__callback",
      "outputs": [],
      "payable": false,
      "stateMutability": "nonpayable",
      "type": "function"
    },
    {
      "constant": false,
      "inputs": [
        {
          "internalType": "bytes32",
          "name": "_myid",
          "type": "bytes32"
        },
        {
          "internalType": "string",
          "name": "_result",
          "type": "string"
        },
        {
          "internalType": "bytes",
          "name": "_proof",
          "type": "bytes"
        }
      ],
      "name": "__callback",
      "outputs": [],
      "payable": false,
      "stateMutability": "nonpayable",
      "type": "function"
    },
    {
      "constant": false,
      "inputs": [],
      "name": "addBalance",
      "outputs": [],
      "payable": true,
      "stateMutability": "payable",
      "type": "function"
    },
    {
      "constant": true,
      "inputs": [],
      "name": "getBalance",
      "outputs": [
        {
          "internalType": "uint256",
          "name": "",
          "type": "uint256"
        }
      ],
      "payable": false,
      "stateMutability": "view",
      "type": "function"
    },
    {
      "constant": false,
      "inputs": [],
      "name": "withdrawAll",
      "outputs": [
        {
          "internalType": "uint256",
          "name": "",
          "type": "uint256"
        }
      ],
      "payable": false,
      "stateMutability": "nonpayable",
      "type": "function"
    }
  ],
  "bytecode": "0x608060405234801561001057600080fd5b5033600560006101000a81548173ffffffffffffffffffffffffffffffffffffffff021916908373ffffffffffffffffffffffffffffffffffffffff160217905550612adb806100616000396000f3fe60806040526004361061007b5760003560e01c8063853828b61161004e578063853828b6146103145780638da5cb5b1461033f578063b163cc3814610396578063dbdff2c1146103a05761007b565b806312065fe01461008057806327dc297e146100ab57806338bbfa501461017d578063402e699d146102e6575b600080fd5b34801561008c57600080fd5b506100956103be565b6040518082815260200191505060405180910390f35b3480156100b757600080fd5b5061017b600480360360408110156100ce57600080fd5b8101908080359060200190929190803590602001906401000000008111156100f557600080fd5b82018360208201111561010757600080fd5b8035906020019184600183028401116401000000008311171561012957600080fd5b91908080601f016020809104026020016040519081016040528093929190818152602001838380828437600081840152601f19601f8201169050808301925050505050505091929192905050506103dd565b005b34801561018957600080fd5b506102e4600480360360608110156101a057600080fd5b8101908080359060200190929190803590602001906401000000008111156101c757600080fd5b8201836020820111156101d957600080fd5b803590602001918460018302840111640100000000831117156101fb57600080fd5b91908080601f016020809104026020016040519081016040528093929190818152602001838380828437600081840152601f19601f8201169050808301925050505050505091929192908035906020019064010000000081111561025e57600080fd5b82018360208201111561027057600080fd5b8035906020019184600183028401116401000000008311171561029257600080fd5b91908080601f016020809104026020016040519081016040528093929190818152602001838380828437600081840152601f19601f8201169050808301925050505050505091929192905050506106ee565b005b610312600480360360208110156102fc57600080fd5b8101908080359060200190929190505050610711565b005b34801561032057600080fd5b5061032961089c565b6040518082815260200191505060405180910390f35b34801561034b57600080fd5b50610354610994565b604051808273ffffffffffffffffffffffffffffffffffffffff1673ffffffffffffffffffffffffffffffffffffffff16815260200191505060405180910390f35b61039e6109ba565b005b6103a8610a23565b6040518082815260200191505060405180910390f35b60003073ffffffffffffffffffffffffffffffffffffffff1631905090565b6103e5610a93565b73ffffffffffffffffffffffffffffffffffffffff163373ffffffffffffffffffffffffffffffffffffffff161461041c57600080fd5b60006002826040516020018082805190602001908083835b602083106104575780518252602082019150602081019050602083039250610434565b6001836020036101000a0380198251168184511680821785525050505050509050019150506040516020818303038152906040528051906020012060001c8161049c57fe5b06905060008160066000868152602001908152602001600020600301819055507fc13d60fe9dffdb6908d2d446cd18134373a51db0738ee04f296eeb9128121cbc826040518082815260200191505060405180910390a160066000858152602001908152602001600020600101546006600086815260200190815260200160002060030154141561065657600260066000868152602001908152602001600020600201540290506006600085815260200190815260200160002060000160009054906101000a900473ffffffffffffffffffffffffffffffffffffffff1673ffffffffffffffffffffffffffffffffffffffff166108fc829081150290604051600060405180830381858888f193505050501580156105bf573d6000803e3d6000fd5b506006600085815260200190815260200160002060000160009054906101000a900473ffffffffffffffffffffffffffffffffffffffff1673ffffffffffffffffffffffffffffffffffffffff167fb748d1d8d10626619e45206b17d96b4d3e77b03ac853dbbfec318a44547fcf3d60018360405180831515151581526020018281526020019250505060405180910390a26106e8565b6006600085815260200190815260200160002060000160009054906101000a900473ffffffffffffffffffffffffffffffffffffffff1673ffffffffffffffffffffffffffffffffffffffff167fb748d1d8d10626619e45206b17d96b4d3e77b03ac853dbbfec318a44547fcf3d60008060405180831515151581526020018281526020019250505060405180910390a25b50505050565b6000801b600360008060001b815260200190815260200160002081905550505050565b600180341015610789576040517f08c379a000000000000000000000000000000000000000000000000000000000815260040180806020018281038252601c8152602001807f546865206d696e696d756d2062657420697320302e312045746865720000000081525060200191505060405180910390fd5b610791612948565b600033826000019073ffffffffffffffffffffffffffffffffffffffff16908173ffffffffffffffffffffffffffffffffffffffff168152505083826020018181525050348260400181815250506107e7610a23565b90506001826080019015159081151581525050816006600083815260200190815260200160002060008201518160000160006101000a81548173ffffffffffffffffffffffffffffffffffffffff021916908373ffffffffffffffffffffffffffffffffffffffff16021790555060208201518160010155604082015181600201556060820151816003015560808201518160040160006101000a81548160ff02191690831515021790555090505050505050565b6000600560009054906101000a900473ffffffffffffffffffffffffffffffffffffffff1673ffffffffffffffffffffffffffffffffffffffff163373ffffffffffffffffffffffffffffffffffffffff16146108f857600080fd5b3373ffffffffffffffffffffffffffffffffffffffff166108fc3073ffffffffffffffffffffffffffffffffffffffff16319081150290604051600060405180830381858888f19350505050158015610955573d6000803e3d6000fd5b5060003073ffffffffffffffffffffffffffffffffffffffff16311461097757fe5b3073ffffffffffffffffffffffffffffffffffffffff1631905090565b600560009054906101000a900473ffffffffffffffffffffffffffffffffffffffff1681565b600560009054906101000a900473ffffffffffffffffffffffffffffffffffffffff1673ffffffffffffffffffffffffffffffffffffffff163373ffffffffffffffffffffffffffffffffffffffff1614610a1457600080fd5b60003411610a2157600080fd5b565b60008060009050600062030d4090506000610a4083600184610db0565b90507fc4dc360d0a9c0677a3379ae0a3d81e887f761e65fdf3d7e00859d1bcd3c47389604051808060200182810382526031815260200180612a766031913960400191505060405180910390a150505090565b60008073ffffffffffffffffffffffffffffffffffffffff16600160009054906101000a900473ffffffffffffffffffffffffffffffffffffffff1673ffffffffffffffffffffffffffffffffffffffff161480610b1b57506000610b19600160009054906101000a900473ffffffffffffffffffffffffffffffffffffffff1661134b565b145b15610b2c57610b2a6000611356565b505b600160009054906101000a900473ffffffffffffffffffffffffffffffffffffffff1673ffffffffffffffffffffffffffffffffffffffff166338cc48316040518163ffffffff1660e01b8152600401602060405180830381600087803b158015610b9657600080fd5b505af1158015610baa573d6000803e3d6000fd5b505050506040513d6020811015610bc057600080fd5b810190808051906020019092919050505073ffffffffffffffffffffffffffffffffffffffff166000809054906101000a900473ffffffffffffffffffffffffffffffffffffffff1673ffffffffffffffffffffffffffffffffffffffff1614610d0957600160009054906101000a900473ffffffffffffffffffffffffffffffffffffffff1673ffffffffffffffffffffffffffffffffffffffff166338cc48316040518163ffffffff1660e01b8152600401602060405180830381600087803b158015610c8e57600080fd5b505af1158015610ca2573d6000803e3d6000fd5b505050506040513d6020811015610cb857600080fd5b81019080805190602001909291905050506000806101000a81548173ffffffffffffffffffffffffffffffffffffffff021916908373ffffffffffffffffffffffffffffffffffffffff1602179055505b6000809054906101000a900473ffffffffffffffffffffffffffffffffffffffff1673ffffffffffffffffffffffffffffffffffffffff1663c281d19e6040518163ffffffff1660e01b815260040160206040518083038186803b158015610d7057600080fd5b505afa158015610d84573d6000803e3d6000fd5b505050506040513d6020811015610d9a57600080fd5b8101908080519060200190929190505050905090565b60008083118015610dc2575060208311155b610dcb57600080fd5b600a84029350606060016040519080825280601f01601f191660200182016040528015610e075781602001600182028038833980820191505090505b5090508360f81b81600081518110610e1b57fe5b60200101907effffffffffffffffffffffffffffffffffffffffffffffffffffffffffffff1916908160001a905350606060206040519080825280601f01601f191660200182016040528015610e805781602001600182028038833980820191505090505b509050606060206040519080825280601f01601f191660200182016040528015610eb95781602001600182028038833980820191505090505b5090506000610ec6611367565b905060208352424118600143034018602084015260208252806020830152606060206040519080825280601f01601f191660200182016040528015610f1a5781602001600182028038833980820191505090505b509050886020820152606060086040519080825280601f01601f191660200182016040528015610f595781602001600182028038833980820191505090505b509050610f6c8260186008846000611684565b50610f7561298f565b60405180608001604052808781526020018881526020018681526020018481525090506000610fda6040518060400160405280600681526020017f72616e646f6d0000000000000000000000000000000000000000000000000000815250838c6116e3565b9050606060086040519080825280601f01601f1916602001820160405280156110125781602001600182028038833980820191505090505b50905060208401517f0100000000000000000000000000000000000000000000000000000000000000810460278301537e01000000000000000000000000000000000000000000000000000000000000810460268301537d010000000000000000000000000000000000000000000000000000000000810460258301537c0100000000000000000000000000000000000000000000000000000000810460248301537b01000000000000000000000000000000000000000000000000000000810460238301537a01000000000000000000000000000000000000000000000000000081046022830153790100000000000000000000000000000000000000000000000000810460218301537801000000000000000000000000000000000000000000000000810460208301535061133882828560016004811061115157fe5b602002015160028760006004811061116557fe5b60200201516040518082805190602001908083835b6020831061119d578051825260208201915060208101905060208303925061117a565b6001836020036101000a038019825116818451168082178552505050505050905001915050602060405180830381855afa1580156111df573d6000803e3d6000fd5b5050506040513d60208110156111f457600080fd5b81019080805190602001909291905050508760026004811061121257fe5b60200201516040516020018085805190602001908083835b6020831061124d578051825260208201915060208101905060208303925061122a565b6001836020036101000a03801982511681845116808217855250505050505090500184805190602001908083835b6020831061129e578051825260208201915060208101905060208303925061127b565b6001836020036101000a03801982511681845116808217855250505050505090500183815260200182805190602001908083835b602083106112f557805182526020820191506020810190506020830392506112d2565b6001836020036101000a03801982511681845116808217855250505050505090500194505050505060405160208183030381529060405280519060200120611a50565b8199505050505050505050509392505050565b6000813b9050919050565b6000611360611a6c565b9050919050565b60008073ffffffffffffffffffffffffffffffffffffffff16600160009054906101000a900473ffffffffffffffffffffffffffffffffffffffff1673ffffffffffffffffffffffffffffffffffffffff1614806113ef575060006113ed600160009054906101000a900473ffffffffffffffffffffffffffffffffffffffff1661134b565b145b15611400576113fe6000611356565b505b600160009054906101000a900473ffffffffffffffffffffffffffffffffffffffff1673ffffffffffffffffffffffffffffffffffffffff166338cc48316040518163ffffffff1660e01b8152600401602060405180830381600087803b15801561146a57600080fd5b505af115801561147e573d6000803e3d6000fd5b505050506040513d602081101561149457600080fd5b810190808051906020019092919050505073ffffffffffffffffffffffffffffffffffffffff166000809054906101000a900473ffffffffffffffffffffffffffffffffffffffff1673ffffffffffffffffffffffffffffffffffffffff16146115dd57600160009054906101000a900473ffffffffffffffffffffffffffffffffffffffff1673ffffffffffffffffffffffffffffffffffffffff166338cc48316040518163ffffffff1660e01b8152600401602060405180830381600087803b15801561156257600080fd5b505af1158015611576573d6000803e3d6000fd5b505050506040513d602081101561158c57600080fd5b81019080805190602001909291905050506000806101000a81548173ffffffffffffffffffffffffffffffffffffffff021916908373ffffffffffffffffffffffffffffffffffffffff1602179055505b6000809054906101000a900473ffffffffffffffffffffffffffffffffffffffff1673ffffffffffffffffffffffffffffffffffffffff1663abaa5f3e6040518163ffffffff1660e01b815260040160206040518083038186803b15801561164457600080fd5b505afa158015611658573d6000803e3d6000fd5b505050506040513d602081101561166e57600080fd5b8101908080519060200190929190505050905090565b606060008285019050808451101561169b57600080fd5b600086602001905060008460200190505b8688602001018210156116d457818901518082880152506020820191506020810190506116ac565b85935050505095945050505050565b60008073ffffffffffffffffffffffffffffffffffffffff16600160009054906101000a900473ffffffffffffffffffffffffffffffffffffffff1673ffffffffffffffffffffffffffffffffffffffff16148061176b57506000611769600160009054906101000a900473ffffffffffffffffffffffffffffffffffffffff1661134b565b145b1561177c5761177a6000611356565b505b600160009054906101000a900473ffffffffffffffffffffffffffffffffffffffff1673ffffffffffffffffffffffffffffffffffffffff166338cc48316040518163ffffffff1660e01b8152600401602060405180830381600087803b1580156117e657600080fd5b505af11580156117fa573d6000803e3d6000fd5b505050506040513d602081101561181057600080fd5b810190808051906020019092919050505073ffffffffffffffffffffffffffffffffffffffff166000809054906101000a900473ffffffffffffffffffffffffffffffffffffffff1673ffffffffffffffffffffffffffffffffffffffff161461195957600160009054906101000a900473ffffffffffffffffffffffffffffffffffffffff1673ffffffffffffffffffffffffffffffffffffffff166338cc48316040518163ffffffff1660e01b8152600401602060405180830381600087803b1580156118de57600080fd5b505af11580156118f2573d6000803e3d6000fd5b505050506040513d602081101561190857600080fd5b81019080805190602001909291905050506000806101000a81548173ffffffffffffffffffffffffffffffffffffffff021916908373ffffffffffffffffffffffffffffffffffffffff1602179055505b6060600460405190808252806020026020018201604052801561199057816020015b606081526020019060019003908161197b5790505b509050836000600481106119a057fe5b6020020151816000815181106119b257fe5b6020026020010181905250836001600481106119ca57fe5b6020020151816001815181106119dc57fe5b6020026020010181905250836002600481106119f457fe5b602002015181600281518110611a0657fe5b602002602001018190525083600360048110611a1e57fe5b602002015181600381518110611a3057fe5b6020026020010181905250611a46858285611fc3565b9150509392505050565b8060036000848152602001908152602001600020819055505050565b600080611a8c731d3b2638a7cc9f2cb3d298a3da7a90b67e5506ed61134b565b1115611b2e57731d3b2638a7cc9f2cb3d298a3da7a90b67e5506ed600160006101000a81548173ffffffffffffffffffffffffffffffffffffffff021916908373ffffffffffffffffffffffffffffffffffffffff160217905550611b256040518060400160405280600b81526020017f6574685f6d61696e6e6574000000000000000000000000000000000000000000815250612525565b60019050611fc0565b6000611b4d73c03a2615d5efaf5f49f60b7bb6583eaec212fdf161134b565b1115611bef5773c03a2615d5efaf5f49f60b7bb6583eaec212fdf1600160006101000a81548173ffffffffffffffffffffffffffffffffffffffff021916908373ffffffffffffffffffffffffffffffffffffffff160217905550611be66040518060400160405280600c81526020017f6574685f726f707374656e330000000000000000000000000000000000000000815250612525565b60019050611fc0565b6000611c0e73b7a07bcf2ba2f2703b24c0691b5278999c59ac7e61134b565b1115611cb05773b7a07bcf2ba2f2703b24c0691b5278999c59ac7e600160006101000a81548173ffffffffffffffffffffffffffffffffffffffff021916908373ffffffffffffffffffffffffffffffffffffffff160217905550611ca76040518060400160405280600981526020017f6574685f6b6f76616e0000000000000000000000000000000000000000000000815250612525565b60019050611fc0565b6000611ccf73146500cfd35b22e4a392fe0adc06de1a1368ed4861134b565b1115611d715773146500cfd35b22e4a392fe0adc06de1a1368ed48600160006101000a81548173ffffffffffffffffffffffffffffffffffffffff021916908373ffffffffffffffffffffffffffffffffffffffff160217905550611d686040518060400160405280600b81526020017f6574685f72696e6b656279000000000000000000000000000000000000000000815250612525565b60019050611fc0565b6000611d9073a2998efd205fb9d4b4963afb70778d6354ad3a4161134b565b1115611e325773a2998efd205fb9d4b4963afb70778d6354ad3a41600160006101000a81548173ffffffffffffffffffffffffffffffffffffffff021916908373ffffffffffffffffffffffffffffffffffffffff160217905550611e296040518060400160405280600a81526020017f6574685f676f65726c6900000000000000000000000000000000000000000000815250612525565b60019050611fc0565b6000611e51736f485c8bf6fc43ea212e93bbf8ce046c7f1cb47561134b565b1115611eb557736f485c8bf6fc43ea212e93bbf8ce046c7f1cb475600160006101000a81548173ffffffffffffffffffffffffffffffffffffffff021916908373ffffffffffffffffffffffffffffffffffffffff16021790555060019050611fc0565b6000611ed47320e12a1f859b3feae5fb2a0a32c18f5a65555bbf61134b565b1115611f38577320e12a1f859b3feae5fb2a0a32c18f5a65555bbf600160006101000a81548173ffffffffffffffffffffffffffffffffffffffff021916908373ffffffffffffffffffffffffffffffffffffffff16021790555060019050611fc0565b6000611f577351efaf4c8b3c9afbd5ab9f4bbc82784ab6ef8faa61134b565b1115611fbb577351efaf4c8b3c9afbd5ab9f4bbc82784ab6ef8faa600160006101000a81548173ffffffffffffffffffffffffffffffffffffffff021916908373ffffffffffffffffffffffffffffffffffffffff16021790555060019050611fc0565b600090505b90565b60008073ffffffffffffffffffffffffffffffffffffffff16600160009054906101000a900473ffffffffffffffffffffffffffffffffffffffff1673ffffffffffffffffffffffffffffffffffffffff16148061204b57506000612049600160009054906101000a900473ffffffffffffffffffffffffffffffffffffffff1661134b565b145b1561205c5761205a6000611356565b505b600160009054906101000a900473ffffffffffffffffffffffffffffffffffffffff1673ffffffffffffffffffffffffffffffffffffffff166338cc48316040518163ffffffff1660e01b8152600401602060405180830381600087803b1580156120c657600080fd5b505af11580156120da573d6000803e3d6000fd5b505050506040513d60208110156120f057600080fd5b810190808051906020019092919050505073ffffffffffffffffffffffffffffffffffffffff166000809054906101000a900473ffffffffffffffffffffffffffffffffffffffff1673ffffffffffffffffffffffffffffffffffffffff161461223957600160009054906101000a900473ffffffffffffffffffffffffffffffffffffffff1673ffffffffffffffffffffffffffffffffffffffff166338cc48316040518163ffffffff1660e01b8152600401602060405180830381600087803b1580156121be57600080fd5b505af11580156121d2573d6000803e3d6000fd5b505050506040513d60208110156121e857600080fd5b81019080805190602001909291905050506000806101000a81548173ffffffffffffffffffffffffffffffffffffffff021916908373ffffffffffffffffffffffffffffffffffffffff1602179055505b60008060009054906101000a900473ffffffffffffffffffffffffffffffffffffffff1673ffffffffffffffffffffffffffffffffffffffff16632ef3accc86856040518363ffffffff1660e01b81526004018080602001838152602001828103825284818151815260200191508051906020019080838360005b838110156122cf5780820151818401526020810190506122b4565b50505050905090810190601f1680156122fc5780820380516001836020036101000a031916815260200191505b509350505050602060405180830381600087803b15801561231c57600080fd5b505af1158015612330573d6000803e3d6000fd5b505050506040513d602081101561234657600080fd5b81019080805190602001909291905050509050823a02670de0b6b3a764000001811115612379576000801b91505061251e565b60606123848561253f565b90506000809054906101000a900473ffffffffffffffffffffffffffffffffffffffff1673ffffffffffffffffffffffffffffffffffffffff1663c55c1cb68360008985896040518663ffffffff1660e01b8152600401808581526020018060200180602001848152602001838103835286818151815260200191508051906020019080838360005b8381101561242857808201518184015260208101905061240d565b50505050905090810190601f1680156124555780820380516001836020036101000a031916815260200191505b50838103825285818151815260200191508051906020019080838360005b8381101561248e578082015181840152602081019050612473565b50505050905090810190601f1680156124bb5780820380516001836020036101000a031916815260200191505b5096505050505050506020604051808303818588803b1580156124dd57600080fd5b505af11580156124f1573d6000803e3d6000fd5b50505050506040513d602081101561250857600080fd5b8101908080519060200190929190505050925050505b9392505050565b806002908051906020019061253b9291906129b6565b5050565b60606125496125bf565b612551612a36565b61255d816104006125cb565b61256681612615565b60008090505b83518110156125a85761259b84828151811061258457fe5b60200260200101518361262390919063ffffffff16565b808060010191505061256c565b506125b281612648565b8060000151915050919050565b60405180590338823950565b60008190506000602082816125dc57fe5b06146125f557602081816125ec57fe5b06602003810190505b808360200181815250506040518084526000815281810160405250505050565b612620816004612656565b50565b6126308260028351612677565b61264381836127b790919063ffffffff16565b505050565b612653816007612656565b50565b612673601f60058360ff16901b178361286290919063ffffffff16565b5050565b601781116126a35761269e8160058460ff16901b60ff16178461286290919063ffffffff16565b6127b2565b60ff81116126e4576126c8601860058460ff16901b178461286290919063ffffffff16565b6126de816001856128a29092919063ffffffff16565b506127b1565b61ffff81116127265761270a601960058460ff16901b178461286290919063ffffffff16565b612720816002856128a29092919063ffffffff16565b506127b0565b63ffffffff811161276a5761274e601a60058460ff16901b178461286290919063ffffffff16565b612764816004856128a29092919063ffffffff16565b506127af565b67ffffffffffffffff81116127ae57612796601b60058460ff16901b178461286290919063ffffffff16565b6127ac816008856128a29092919063ffffffff16565b505b5b5b5b5b505050565b6127bf612a36565b826020015183600001515183510111156127ef576127ee8360026127e886602001518651612909565b02612925565b5b60008060008451905085518051602081830101945086518101825260208701935050505b602081106128365781518352602083019250602082019150602081039050612813565b60006001826020036101000a039050801983511681855116818117865250508694505050505092915050565b8160200151600183600001515101111561288857612887826002846020015102612925565b5b815180516020818301018381536001820183525050505050565b6128aa612a36565b8360200151846000015151830111156128d8576128d78460026128d1876020015186612909565b02612925565b5b60006001836101000a0390508451805184818301018684198251161781528582018352505050849150509392505050565b60008183111561291b5782905061291f565b8190505b92915050565b60608260000151905061293883836125cb565b61294283826127b7565b50505050565b6040518060a00160405280600073ffffffffffffffffffffffffffffffffffffffff1681526020016000815260200160008152602001600081526020016000151581525090565b60405180608001604052806004905b606081526020019060019003908161299e5790505090565b828054600181600116156101000203166002900490600052602060002090601f016020900481019282601f106129f757805160ff1916838001178555612a25565b82800160010185558215612a25579182015b82811115612a24578251825591602001919060010190612a09565b5b509050612a329190612a50565b5090565b604051806040016040528060608152602001600081525090565b612a7291905b80821115612a6e576000816000905550600101612a56565b5090565b9056fe50726f7661626c65207175657279207761732073656e742e2057616974696e6720666f722074686520616e737765722e2ea265627a7a7231582009b1debbb40e10b11623135d886dd3e439bb302820fd96cd4176dcc5fdf2ce6964736f6c634300050c0032",
  "source": "pragma solidity 0.5.12;\n\nimport \"./provableAPI.sol\";\n\ncontract CoinFlip is usingProvable{\n\n    address public owner;\n    uint constant NUM_RANDOM_BYTES_REQUESTED=1;\n\n    constructor() public {\n        owner = msg.sender;\n    }\n\n    modifier onlyOwner(){\n        require(msg.sender == owner);\n        _;\n    }\n\n    modifier costs(uint cost){\n        require(msg.value >= cost, \"The minimum bet is 0.1 Ether\");\n        _;\n    }\n\n    struct Player {\n      address payable playerAddress;\n      uint coinSelection;\n      uint betInput;\n      uint Result;\n      bool callbackStatus;\n    }\n\n    mapping (bytes32=>Player) playerIDs;\n\n    event LogNewProvableQuery(string description);\n    event result (address indexed player, bool betResult, uint valueBack);\n    event generatedRandomNumber(uint randomNumber);\n\n\n    function coinFlip(uint coinGuess) public payable costs(1 wei){\n\n      Player memory newPlayer;\n      bytes32 playerQueryID;\n      newPlayer.playerAddress = msg.sender;\n      newPlayer.coinSelection = coinGuess;\n      newPlayer.betInput = msg.value;\n      playerQueryID = getRandomNumber();\n      newPlayer.callbackStatus=true;\n      playerIDs[playerQueryID] = newPlayer;\n}\n\nfunction getRandomNumber() public payable returns(bytes32){\n  uint QUERY_EXECUTION_DELAY = 0;\n  uint GAS_FOR_CALLBACK = 200000;\n  bytes32 queryID = provable_newRandomDSQuery(\n    QUERY_EXECUTION_DELAY,\n    NUM_RANDOM_BYTES_REQUESTED,\n    GAS_FOR_CALLBACK\n    );\n\n    emit LogNewProvableQuery(\"Provable query was sent. Waiting for the answer..\");\n\n}\n\n    function __callback(bytes32 _queryID, string memory _result) public {\n      require(msg.sender == provable_cbAddress());\n      uint randomNumber = uint(keccak256(abi.encodePacked(_result))) % 2;\n      uint toTransfer;\n      playerIDs[_queryID].Result=randomNumber;\n\n      emit generatedRandomNumber(randomNumber);\n\n      if(playerIDs[_queryID].Result == playerIDs[_queryID].coinSelection){\n        toTransfer = playerIDs[_queryID].betInput*2;\n        playerIDs[_queryID].playerAddress.transfer(toTransfer);\n        emit result (playerIDs[_queryID].playerAddress, true, toTransfer);\n      }\n\n      else {\n        emit result(playerIDs[_queryID].playerAddress, false, 0);\n      }\n      }\n\n/*\n    function testRandom() public returns(bytes32){\n      bytes32 queryID = bytes32(keccak256(abi.encodePacked(msg.sender)));\n      _callback(queryID, \"1\", bytes(\"test\"));\n      return queryID;\n    }*/\n\n\n    function addBalance() public payable onlyOwner {\n      require(msg.value>0);\n    }\n\n    function getBalance() public view returns(uint){\n        return address(this).balance;\n    }\n\n        function withdrawAll() public onlyOwner returns(uint) {\n            msg.sender.transfer(address(this).balance);\n            assert(address(this).balance == 0);\n            return address(this).balance;\n    }\n\n}\n",
  "sourcePath": "/Users/margaritagyorgiev/Desktop/IOT/Ethereum course advanced/CoinFlip_dApp/contracts/CoinFlip.sol",
  "compiler": {
    "name": "solc",
    "version": "0.5.12+commit.7709ece9.Emscripten.clang"
  },
  "schemaVersion": "3.0.16",
  "updatedAt": "2021-03-11T21:56:30.646Z",
  "devdoc": {
    "methods": {}
  },
  "userdoc": {
    "methods": {}
  }
}